:1000000080200020B91E000071730000A51E0000B2
:10001000A51E0000A51E0000A51E00000000000097
:10002000000000000000000000000000352000007B
:10003000A51E000000000000CD1F0000A51E00004E
:10004000C5210000C5210000C5210000C521000018
:10005000C5210000C5210000C5210000C521000008
:10006000C5210000C5210000C5210000C5210000F8
:10007000C5210000C5210000C5210000C5210000E8
:10008000C5210000C5210000C5210000C5210000D8
:10009000C5210000C5210000C5210000C5210000C8
:1000A000C5210000C5210000C5210000C5210000B8
:1000B000C5210000C5210000C5210000C5210000A8
:1000C000C5210000C5210000C5210000C521000098
:1000D000C5210000C5210000C5210000C521000088
:1000E000C5210000C5210000C5210000C521000078
:1000F000C5210000C5210000C5210000C521000068
:10010000034613F8012B002AFBD1181A0138704757
:100110002DE9F0478AB002AF714A7248032107F017
:1001200052F8714808F032F950B9704A6D4801210F
:1001300007F049F800214FF4004008F016FAF9E7FB
:10014000694807F1080104F003FD034620B1684A3D
:100150006448012107F040F8634804F0C1FD0346FC
:1001600020B1644A5F48012107F036F862495E48D1
:100170006B2204F0D9FD034620B1604A59480121A1
:1001800007F02AF83C7A8CB95D4A5648032107F0FB
:100190001AF802235B4A5448214608F0AFF8034698
:1001A00020B1594A4F48012107F016F84E4EDFF8AA
:1001B0005C81DFF8309107F10905002415F8013F53
:1001C000A24601346BB1BA1D5FFA8AF1304608F0DD
:1001D000B6F848B34E4A009053464248012107F012
:1001E00005F8062CEAD1BC7C002C3DD1FB7C002B11
:1001F00067D13B7D23B1474A3A48032106F0E3FF2C
:10020000454A3848032106F0DEFF374804F00EFF68
:100210000346424A3348012106F0DEFF00214FF435
:10022000004008F0A2F9F9E7FB88EA464E218AB0BF
:1002300013FB01F102AA42F2107CD36191FBFCF3A3
:1002400013620CFB13110A2391FBF3F10623C2E99D
:100250000584516242F8103F4FF44351034648462B
:1002600000F0F0FFD546BCE72D4A1E48022106F0FB
:10027000AAFF1D4808F03EF8B0F81B305A0092B2B1
:10028000002A08BF0222110AC2760177154800929F
:100290000321244A06F0AAFFFC7C94B93B7D23B1DC
:1002A0001C4A1048032106F08EFF0F4804F094FD0D
:1002B00003460028A4D01C4A0A48012106F08CFFFE
:1002C0009EE71A4A0748032106F07DFF3B7D23B1D4
:1002D000104A0448032106F076FF002CE5D18FE791
:1002E0003C8D0000608A000068880000588D000086
:1002F0008A8D0000C28D0000B48F0000D68D0000F2
:10030000EE8D0000B28F0000258E0000608E000090
:100310003B8E0000898E0000528F0000838F00000A
:10032000A28E0000DF8E00003A8F00000C8F0000CC
:100330002DE9F04F91B08407009302F0040302937B
:10034000C2F3C20303F10103DDF86880039205469E
:100350000E46059340F0BA81041D30B1072909D833
:100360006FF01B0011B0BDE8F08F01F007063444B8
:10037000C6F10806009B4FF00009591E4FF0040A11
:100380004FF0FF330193CDF810904F46CB465346C4
:100390000DB1009A22600598002800F3E880984883
:1003A000009A824203D397488242C0F0E080039AC9
:1003B000A4EB050E92074FEA9E0000F103810F2F78
:1003C00000F2B180002D00F0058107F140020DEB35
:1003D000020C019A0CF8200C0CF8102C0498013037
:1003E0000490E7E07A285DD84B280ED8472859D8E2
:1003F00029282DD8252852D054D820287AD023381F
:10040000D0F1000B4BEB000B74E04C382E2849D890
:10041000DFE800F07048484848484848484848489D
:100420004B484848484848484859484B4B595959FF
:10043000704B6D487048184B184848827F4B4848AD
:100440004B487F0000204FF0000B4FF0040A38E0CB
:100450002A38C0B2012202FA00F010EA0E0F49D188
:1004600010F0625C2FD110EA020B43D06046013CD1
:100470005444B4FBFAF40AFB04F4002D61D0A3EB5E
:10048000050CA444B4453FF66BAF002868D1042B9B
:1004900047D158F8043B2360043404232AE0019A2E
:1004A000013A01924FF0000B24E011F8010C6C2886
:1004B00034D111F8023C00206C2B8346C5D14FF09B
:1004C000080A5346D3E708F1070828F0070807345D
:1004D000F8E802AB24F0070435B106982044B04296
:1004E0003FF63EAFC4E900AB08344FF0000B4FF0CD
:1004F000080A534611F8010F002878D0BBF1000F0D
:100500007FF470AF2528F5D1019B013301934FF0A3
:10051000010B4FF0040AECE7584694E700208346AD
:10052000A5E7082B02D06FF015001BE708F10708BC
:1005300028F00708F8E80223C4E900230834082358
:10054000D8E768B9042B02D108F10408A4E7082B06
:10055000E9D108F1070828F0070808F10808EDE7D5
:10056000059A013A059258F8042B009210E7039A75
:10057000900720D5A4EB050E4FEA9E004FF0010C2A
:10058000BEF5007FCFD20F2FCDD8F5B107F14002D5
:100590000DEB020EC0B2019A0EF8200C0EF8102CD2
:1005A000BCF1000F3FF41AAF60F07F000EF8200C92
:1005B00009F101090137C5F10802043406924FF62A
:1005C000DA7E97E74FF0000CDAE7BCF1000F01D0BC
:1005D0000136EFE7029802360028EBD10098CDE90A
:1005E0000631FFF78DFDDDE906310644E2E7631BC6
:1005F000B3F5806F97D23DB9A6F10804E018B1E6D3
:10060000A48700006C9B0000029A28609B082B7056
:100610009DF81030C2B1EB7085F80290B9F1000F6F
:1006200005D008A80022C5F1010C97420ED1C5F1F2
:1006300001030DF120084FF0000A01930DF1300B7A
:10064000574512D1601B8DE66B70E5E710F8013B52
:10065000190608D50CEB040EB64503F07F033FF6F0
:100660007FAE04F8013B0132DFE7B9F1000F03D0A0
:1006700098F90020002A17DB029BD3B11AF80B204F
:1006800004F8012B0022019B18191044B0423FF6D8
:1006900067AE98F8000004F8010B00990392204619
:1006A00007F0E4FF039A14440AF1010A08F1010873
:1006B000C6E798F8002055F822300093029B45F8D1
:1006C00022300098FFF71CFD421CDCE76FF00D00A4
:1006D00048E600BF2DE9F04F97B000AF90F802A0B8
:1006E000D7F880B03B62CBF3C0030446FA62BB612B
:1006F000894641B9457800780AEB800020444D4591
:1007000017D8A0EB0409E378FB61BAF1000F02D01F
:100710001BF0010F16D1FB6953BBFB6A1BB13A6A90
:100720004946204698474D4628465C37BD46BDE8B9
:10073000F08F461C3046FFF7E3FC0130304409F1EE
:100740000109DCE7237862687A62FA6A99007961C4
:1007500004EB8301002A40F000814D460E4601EB78
:100760000A094FF000084E454CD101EB0A0610E093
:100770001BF0020FD1D023789A007A6162687A6206
:10078000FA6A04EB8301002A77D14D4601EB0A0691
:1007900090461BF0050F0CBF02230123FB62FB698F
:1007A00006EB430A0BF00203BB625645BCD016F8B9
:1007B000021B16F8013C54F82390994B994502D33B
:1007C000984B994536D3BB69002B40D0786A06F028
:1007D000F3F800283BD0E9468AB06A46924B536151
:1007E0007B6AC2E906314FF4007313848F4B42F8E1
:1007F000103F8F4800234FF4125100F023FD023DBB
:10080000CD46D2E716F8013BF96254F82300FFF712
:1008100077FCD7F88430F96A01304BB1D7F88830CB
:1008200098453EBFD7F8843023F8180008F1010836
:10083000054498E7BB6923B1786A06F0BDF8002843
:10084000C9D11BF0010F05D1FB6AED1AADE7BB6AF8
:10085000002BAAD04846FFF753FCD7F8843053B199
:10086000D7F8883098453FBFD7F88420431C22F83A
:10087000183008F10108054497E7BAF1000F72D06B
:100880001BF0040672D0D046002607F148005246FD
:100890003B61B96207F0EAFEB96A3B6901EB0A0203
:1008A000BA62FA69F9695200FA60BA6A02EB410267
:1008B0003A610BF00202BA603A69B96A8A4257D1CA
:1008C00062787A621BF0020F32440CBF4FEA580183
:1008D00000211BF0010FD2B240F09F801BF0040FEB
:1008E00014BF40460020BB616270A070E1703A6A9C
:1008F0007969FB6A20469847051EFFF615AFBB696C
:1009000023707B6A6370FB69E37041463A6AFB6A55
:1009100084F802A007F148009847B0F10008C0F23F
:10092000BB807B693A6AA9EB0A01C91AFB68C91A3C
:10093000D7E90A0398470028C0F2B080A84408EB22
:1009400000054FF0000B07F1380AB34572D30021C0
:100950003A6AFB6A08469847E6E656464FF00008B2
:1009600007F1380093E75646D04697E7B04695E73B
:10097000BA6A12F8021BBA6212F8015C284A54F8EB
:100980002500904202D3274A90421ED3BA6932B161
:10099000786A7B6006F010F87B6800288CD1BA6812
:1009A00002BB08F1280207F1300C08F10100944461
:1009B00007F1580252FA80F008F102080CF8101CF6
:1009C0005FFA88F800F8105C76E7BA693AB1786A9D
:1009D0007B6005F0F1FF7B6800287FF46DAF1BF0B2
:1009E000010F09D006F1280207F13000711C16181A
:1009F00006F8205CCEB25FE71BF0040F3FF45CAF5B
:100A000008F1280207F1300008F1010102EB0008AB
:100A100008F8105C5FFA81F84EE7002063E700BF3A
:100A2000A48700006C9B00002390000004000001DC
:100A3000688A00001BF80A3087F8373054F8239092
:100A4000D7F884302BB3D7F888309B4521D2D7F81C
:100A5000843033F81B803A6AFB6A012107F13700C2
:100A6000984700281ADB0544B8F1000F06D1484624
:100A7000FFF746FB00F101081FFA88F83A6AFB6AA3
:100A8000414648469847002808DB05440BF1010B16
:100A90005BE74FF00008DEE7454645E6054643E6DE
:100AA000014B1860704700BFC004002080B50546A8
:100AB0000E461746984605F0CFF8034607F068FE45
:100AC000DFF81890044649F800304246304639466F
:100AD000A84754F8090001F063FA00BF08000000BD
:100AE0002DE9F047058B04462807904611D40229CA
:100AF00005F0070540F0CC80204606F0F2F978B109
:100B00000138218B042811D8DFE800F0C2106D8570
:100B1000950001290CBF45F0100545F020052583FF
:100B200088F31188BFF36F8FBDE8F08701F0070AE3
:100B3000AA4500F0A5800027B9463E46A368002BD1
:100B400000F0BC8041F00801218388F31188BFF3D5
:100B50006F8FA168002900F0BA800D68002900F0AD
:100B6000B680D1F80480334652462046C047002D57
:100B700076D02B6829461D46F0E701F007035A1F7F
:100B8000012A1BD8002221F00701062B276889B211
:100B9000C4E9002209D13B4603E0628B0132628343
:100BA0001B68002BF9D141F002012183204606F099
:100BB00098F900287AD041F0200176E0042B0AD180
:100BC00021F0070189B22183204606F08AF910B18D
:100BD00041F020012183218B01F0070AAA454FD063
:100BE0000027B946AAE7236921F0070141F0060171
:100BF000062DD3F8009021832DD1B9F1000F3FD0FD
:100C000041F00801218388F31188BFF36F8F3A49BF
:100C10002046C84729E021F00701236941F004017B
:100C200089B2042DD3F804902183E6D000273E46F4
:100C30004FF0040A82E721F00701236941F0050122
:100C400089B2052DD3F808902183D6D000273E46DF
:100C50004FF0050A72E700273E464FF0060A6DE79F
:100C60002B4687E7B9F1000FD1D1EFF3118820238C
:100C700083F31288BFF36F8F238B23F00803238342
:100C8000258BEA062ED525F01003238305F00705F2
:100C90006669218B002EBFF670AF00232768C4E978
:100CA000003321F0070141F001012183218B01F084
:100CB000070AAA454FF000097FF440AF002F9CD0EF
:100CC00041F00801218388F31188BFF36F8F002F53
:100CD000C8D03D68394633465246204606F02DF9C5
:100CE0002F46F4E7AB067FF51BAF25F020032383E7
:100CF00005F0070500E700BF676F00002DE9F0472A
:100D0000DFF85880044607464FF0010914B9384609
:100D1000BDE8F08794FAA4F5B5FA85F509FA05F36C
:100D20002E0108EB05156FEA030A24EA03042B7B66
:100D3000002BEBD058F806301B694BB9464404220F
:100D400073682846196807EA0A0700F067FADDE7C2
:100D5000284698470028D9D1F0E700BFC88A00008C
:100D600030B51049104889B0002207F057FC0F4DEC
:100D70000F4900220023CDE9062300240E23CDE9EC
:100D80000334CDE901440B4B00944FF440722846E4
:100D900004F0C8FC0849284604F03EFC204609B08F
:100DA00030BD00BFBD0D0000A00A0020E8050020F6
:100DB000800F0020C1100000D7900000014804F00F
:100DC000D1BB00BFD40500202DE9F04780461F4865
:100DD0000F4606F072F90646002830D00025284656
:100DE000BDE8F087237B6BB12368DB680BB120463D
:100DF000984723681B69D3B96368042219682046A1
:100E000000F00CFA013610344C45EBD3B8F1000F6A
:100E1000E5D0002DE2D02846FFF770FF0546002FF1
:100E2000F7D000214FF4A47007F09FFBF1E72046B4
:100E300098470028E0D00AFA06F31D43E2E7044C85
:100E4000DFF8109005464FF0010ADDE7380D00206D
:100E5000C88A0000E88A0000014B53F82000704760
:100E60006C8B000008B5034608462BB1044A13609A
:100E700000F07EFC002008BD6FF01500FBE700BF0E
:100E8000C404002010B5044C237813B9034804F0BF
:100E900069FB0123237010BD540F0020D4050020EE
:100EA00010B504460B4806F008F95CB1BFF35B8F40
:100EB000094B53E8001F013943E80012002AF8D11A
:100EC000BFF35B8F054807F0B5FB0548BDE8104050
:100ED00004F048BB300D0020340D0020A00A002093
:100EE000D40500200020064BBFF35B8F014653E87A
:100EF000000F43E80012002AF9D1BFF35B8F70475F
:100F0000300D002070B5FFF7EDFF084C084E054688
:100F1000B44200D370BD63685B792BB123685B6812
:100F200013B12946204698471034F1E7C88A0000DB
:100F3000E88A000010B5044C0449204605F06AFE1A
:100F4000034B1C6010BD00BF98050020588B0000AB
:100F5000280D0020084A094808B500231370084AE4
:100F60001360084A4FF400411360FFF77BFFBDE8B0
:100F70000840FFF7DFBF00BF550F0020B77000002B
:100F8000300D0020340D00200146002201480023CE
:100F900005F061BE98050020014805F0FABE00BFCB
:100FA00098050020024B0146186805F046BF00BFB7
:100FB000280D0020014805F07BBF00BF98050020E8
:100FC00070B5284B187800284BD0FFF7E5FF054691
:100FD00090B1BFF35B8F244B53E8001F013943E806
:100FE0000012002AF8D1BFF35B8F204C204EB44290
:100FF0002DD32846FFF7D6FF1E4B1F4C1B68002B36
:1010000019DD07F009FB4FF47A72A0FB020302FB23
:101010000131C30BD4E9002043EA41439B1A4FEA54
:10102000D13140F2E93261EB0001934271F10001EC
:1010300001D3FFF767FFD4E9003213F57A7342F169
:101040000002C4E90032BDE87040FFF7B3BF636837
:101050005B7923B1236829461B68204698471034E2
:10106000C5E770BD540F0020340D0020C88A000071
:10107000E88A0000300D0020980A002070B50D4D60
:10108000297861B90120FFF79FFE0B4C0B4EB4424B
:1010900006D3FFF795FF0028FBD101232B7070BD0D
:1010A00063685B791BB1236820469B6898471034BE
:1010B000EDE700BF550F0020C88A0000E88A000055
:1010C00000212DE9F0470846FFF77EFE044658B39D
:1010D00040F267684FF0000907F05AFB1B4B1C4AAF
:1010E0001B58136033B11B4B1B68092B02DD1A48D8
:1010F00004F038FA194FDFF860A0002544B120460B
:10110000FFF7FCFD044618B94FF0FF384FF0FF39E8
:10111000FFF756FF064628B9B5B942464B4650463A
:1011200004F054FA3546E9E74FF0FF384FF0FF3945
:10113000D2E72B689B691BB10022114628469847CD
:101140001035BD42F5D3E8E7054DFAE70800000089
:101150002C0D0020340D0020D4050020E88A00006A
:10116000C88A000013B5184805F0A7FF174B1B7875
:1011700073B1EFF31184202383F31288BFF36F8FD1
:10118000FFF71EFF84F31188BFF36F8F02B010BD0D
:101190000F4B1B68002BF9D050B900220023CDE97A
:1011A00000230C484FF40042002305F031F8EDE72E
:1011B0000928EBD1074807F03DFA074802B0BDE81F
:1011C000104004F0CFB900BF340D0020550F0020AF
:1011D0002C0D0020A00A0020D405002010B5064BDD
:1011E0001B68044698472146A060044805F0B2FDFC
:1011F000BDE81040FFF7B6BFC404002098050020EA
:10120000044A054B9B1AB1EBD30F34BF52F831009F
:1012100000207047608A0000C88A0000084BC31A8B
:1012200010B41B1144680133237143689A714368F9
:101230001960436801225A7110BCFFF723BE00BF3A
:10124000C88A00002DE9F04F8FB004AFC1F34A28DF
:10125000B8600D4691467B600C0DB8F1000F63D06D
:10126000002607F114034FF0040B4FF00A0AC7F8E9
:101270000C80C7E907667E620193CDF808B0CDF80F
:1012800000A007F11C03F96832464846FFF722FA2E
:10129000B0F5006F03461CD36C468AB0D9F8041031
:1012A00004AB2648C3E9050140F2FF71D9611A4633
:1012B0004FF400711984224B42F8103F2148334605
:1012C0004FF41251FFF7BEFFA5462C37BD46BDE8CF
:1012D000F08FC0F30A0804F11700184420F007004B
:1012E00080083B60FFF750FE68F35325044690B139
:1012F0003B68154AC7E9083600F1100107F11403ED
:10130000F961CDE900A3CDF808B0F96807F11C0335
:101310004846FFF7DFF968F353257B68B9682A462A
:10132000204605F000FFD0E704F1170020F0070089
:101330008008FFF729FE0446EDE700BFEC900000AF
:1013400004000001888A0000FB7000002DE9F04FC6
:1013500087B0DDE91279DDE9105A0446039193461E
:101360009846BFB1CDF800903B4652461021002070
:10137000CDF81490FEF7DCFFB0F5006F06460AD3F7
:10138000184A194840F2FF73022107B0BDE8F04F38
:1013900005F022BF3E4605F11700304420F007005B
:1013A00004F007048008FFF7EFFD0BF0070BE400E3
:1013B00044EA8B1444EA462444EA0554054640B105
:1013C0003FB1CDF800903B46524631461030FEF713
:1013D000AFFF039943462246284607B0BDE8F04FC9
:1013E00005F0A1BE2B910000888A0000406820B162
:1013F000034BC01A40F3CF0070474FF0FF307047E7
:10140000608A00000EB403B503AB014653F8042B09
:101410000448019301F05EF802B05DF804EB03B0FC
:10142000704700BF3B720000CA0605D48B064CBF54
:1014300002490349FFF7E6BF704700BF649100000F
:10144000639100002DE9F04F89B09B46149B0693F1
:101450009DF84CA0159B0593169B179E049304467C
:101460000D469046BAF1000F00F09D8006F480739F
:10147000079305F040FE06F00209024600283ED020
:1014800091492046FFF7BEFF0746B9F1000F08D08B
:1014900016F0440F35D18D492A462046FFF7B2FF9A
:1014A000074406F0010353B1894B8A4953F82A20B7
:1014B000894B2046002A08BF1A46FFF7A3FF06F40F
:1014C0008073002B49D006F00803002B63D1B8F1DC
:1014D000000F66D0814942462046FFF793FF05463C
:1014E000069B3D44002B6DD1049B002B73D1F30769
:1014F00000F1E48031462046FFF796FFD8E007462A
:10150000C3E7774B18680028CAD0764B4FF47A7936
:101510001B68B5FBF3F54FF46163B5FBF0F100FB1D
:10152000115509FB05F54FF03C0CB1FBF3F203FB41
:101530001211B5FBF0FEB1FBFCF300FB1E550CFBDA
:10154000131109FB05F50091B5FBF0F56649CDE9EE
:1015500001E52046FFF756FFA2E706F00803EBB1CE
:10156000624B634953F82A202046FFF74BFF05469C
:10157000B8F1000F05D0594942462046FFF742FF17
:101580000544BBF1000FABD05A495A462046FFF73D
:1015900039FF0544A4E74FF0000BE1E706F008052A
:1015A000E6E745469CE7BBF1010F069B06D1002B01
:1015B00064D1049B002B7BD000250CE0002BF8D0DD
:1015C0004D485CE04D48069B4D49224605F0C3F965
:1015D000049B002B68D0DFF82C81DFF82C91049F4E
:1015E0003146102F204628BF1027FFF71DFF4FF070
:1015F000000B5D4545DC059B49461A782046FFF700
:1016000001FF4FF0010B1BF0070F03D141462046AD
:10161000FFF7F8FE5F453BD9059B494613F80B20C1
:101620002046FFF7EFFE0BF1010BBBF1100FEAD1E3
:10163000364920464FF0000BFFF7E4FE5A46059B63
:101640009A5CA2F120015F2928BF2E223049204652
:10165000FFF7D8FE0BF1010BBBF1100F1DD01BF0F3
:10166000070F03D141462046FFF7CCFE5F455A469F
:10167000E5D841462046FFF7C5FEEBE71F48554633
:10168000A1E741462046FFF7BDFE0BF1010BB0E795
:1016900020492046FFF7B6FEC5E7059B3B4405936E
:1016A000049BDB1B04939AD1BAF1000F7FF41FAFA8
:1016B000204609B0BDE8F04F05F0B2BD064A054925
:1016C0002046FFF79FFE15E76B9100006F91000029
:1016D0007C8B0000539700006691000094910000FD
:1016E000400D00203C0D002078910000908B000000
:1016F000989100009E910000717200003B72000002
:10170000D5240000AB910000A3910000AD91000032
:10171000AF910000A991000073B542F20F738B42A4
:1017200028BF0B4605680F4A04460521684604F0A9
:10173000A9FD63680C495B6806460B22284605F044
:1017400061FD63683246694628465B6805F05AFDCC
:10175000636806495B681B22284605F053FD02B00A
:1017600070BD00BF5D8E0000CE910000B291000000
:10177000074A00210123904206D8064A01B90123F5
:101780001360054B1860704740085B000121F2E7C9
:1017900040420F003C0D0020400D0020014B012273
:1017A0001A707047560F0020014B002019607047D7
:1017B000580D00200148FFF7AFBF00BFC08B0000ED
:1017C00010B5064B18680C46FFF746FB214603464A
:1017D000BDE8104002480F22184700BF580D0020F6
:1017E000C08B0000F8B5094D094B0A4ED5E90047FA
:1017F00001221A700CB92C60F8BD214630463A46D9
:1018000000F01EF8241A0644F4E700BF4C0D002037
:10181000570F0020580F002010B9074B1870704761
:10182000064B1B781BB141F2883006F0AABDA420FC
:10183000002106F09ABE00BF560F0020570F00206F
:101840002DE9F047DFF878901E4F80460E460424BD
:1018500099F80050A5B906F0C8F8324682464146CC
:10186000284602F08DFF0546504606F0C6F8E5B161
:1018700001233B7099F8003073B93046BDE8F0871A
:1018800032464146002002F07BFF0546EFE7204646
:10189000FFF7C2FF651E2C46002002F0B5FF0028AE
:1018A000EBD03B78002BF2D1E7E73B78002BE4D07C
:1018B000013C2046FFF7B0FF3B78002BC8D1DCE7A6
:1018C000570F0020560F0020F8B5074F0D4604466D
:1018D0004618B44201D12846F8BD14F8011BBB6874
:1018E00001485B689847F4E740880000014B0360BB
:1018F00000207047048C000008B5044805F083F808
:10190000BDE80840024805F07EB800BF2492000000
:10191000599200002DE9F047064600AF0C46002919
:1019200036D0E9468AB0D1E90012A3686D46214855
:10193000A8464FF0050AC5E90501C5E9072348F89F
:1019400010AF1D48424600234FF42151FFF77AFCA7
:10195000CD46D4E903126369AD461848C5F810A016
:10196000C5E90501C5E907231348002342464FF4A2
:101970002151FFF767FCCD46E369114A0E4801216A
:1019800005F02AFCA3690F4A0B48012105F024FC4D
:10199000012E07D1EFF305830B4A0748103B314670
:1019A00005F01AFC2146304603F070FBBD46BDE849
:1019B000F08700BF87920000B08A0000B692000056
:1019C000E5920000F49200002293000030BFFFF780
:1019D000FDBF00BF2DE9F0410B4EDFF8308006EB74
:1019E0000807CC1B054632460949204606F03EFE54
:1019F000A01942460021083C06F046FEC5F8A44066
:101A000007F10800BDE8F0810000000004000000BC
:101A10002C8B0000074A936893F90E10002907DB0E
:101A2000526993421FBF044A536843F08053536086
:101A3000704700BF200F002000ED00E070B5294C7A
:101A400006460D462848294905F099FCA36AD904A1
:101A50003CD52548264905F092FC1720A36A1A05B3
:101A600004D52148234905F08AFC18201D4CA36A9F
:101A70009B0512D51C48204905F081FCA36BA26A86
:101A8000100409D51D4A1848012105F0A5FB1EB117
:101A9000A36A23F40043A3621920124CA36A5905D8
:101AA00004D51148164905F06AFC1A20A36ADA0524
:101AB0000ED50D48134905F062FC1B20094A936AB4
:101AC00043F47F43936200232B7070BD1620C5E75B
:101AD000A36A9B04F2D504480B4905F050FC1C2076
:101AE000ECE700BF00ED00E0B08A00003593000095
:101AF0004B9300005C9300006F93000088930000FC
:101B00009D930000B8930000D093000010B5204CC6
:101B10002049214805F033FCA36A990136D51E48B7
:101B20001E4905F02CFC1E20A36ADA0104D51A48D0
:101B30001B4905F024FC1F20154CA36A1B0304D588
:101B40001548184905F01BFC2120A36A590304D548
:101B50001148154905F013FC22200D4CA36A9A0385
:101B600004D50D48114905F00AFC2320A36ADB03C4
:101B700004D509480E4905F002FC2420044A936A62
:101B80006FEA03436FEA1343936210BD1D20CBE756
:101B900000ED00E0FF930000B08A00001794000001
:101BA0002A9400004494000062940000879400008E
:101BB000A19400002DE9F843364D80468946364809
:101BC0003649174605F0DBFBAB6ADE0627D53449FC
:101BD000314805F0D4FB1124AB6A1D0704D5314907
:101BE0002D4805F0CCFB12242A4DAB6A980718D576
:101BF0002D49294805F0C3FB6E6BAB6A190646D523
:101C00002A4A25483346012105F0E6FAB9F1000FCA
:101C100003D0AB6A23F08003AB62132403E01024EB
:101C2000DAE76FF015061B4DAB6ADA0704D52049D9
:101C3000194805F0A4FB1424AB6A9B0604D51D4982
:101C4000154805F09CFB1524124B9A6AD50602D460
:101C50009A6A90070AD55B68190507D54146304650
:101C600000F066FA10B180F309880224094B9A6AE1
:101C7000920642BF5A6A22F400525A629A6A42F0AD
:101C8000FF029A6200233B702046BDE8F8836FF0A4
:101C90001506C2E700ED00E0B08A0000CC94000019
:101CA000E29400005C930000159500002D95000063
:101CB00043950000D09300002DE9F041664B8AB0B7
:101CC000D3F8048000AF0446C8F30805002686F365
:101CD0001188BFF36F8F02F07F43B3F17F4F07D1BD
:101CE00002F00C03082B12D15C495D4805F047FB5C
:101CF000002634460023FB71EB1E092B00F28A807C
:101D0000DFE803F00A80837C88888888888610074B
:101D10004CBF0C460126EDE7524951484E4D05F0A7
:101D20002EFB0023FB71EB6A9A0705D54E494C4800
:101D300005F025FB002332E0EB6A002B01DA4B496A
:101D4000F5E7EB6A5B00F5D54949454805F017FB17
:101D50006B69A26943F480736B61BFF34F8FBFF36C
:101D60006F8F6B6932F8022C23F480736B61BFF3C1
:101D70004F8FBFF36F8F4DF602739A4208D0AB6A54
:101D8000DBB273B3FA1D01212046FFF713FF37E0E2
:101D90002368384A3248012105F01EFA2368FA798F
:101DA000DAB907F1080504F1200C206861682A46B9
:101DB00003C2083464451546F7D17A6A002E45D02F
:101DC000C2F3080121B96FEA52226FEA42227A6215
:101DD00007F108011846FFF79DFD2837BD46BDE80D
:101DE000F081AB6A13F47F4F04D0F91D0120FFF797
:101DF00025FE05E0AB6AB3F5803F9BD3FFF786FE77
:101E00000346CCE7FA1D0021BEE7F91D0020EEE7EE
:101E100019498CE7194A1A4B18F4F87FE8468AB03A
:101E200018BF13466A461749C2E905134FF40073F9
:101E30001384103D144BD56142F8103F084800232D
:101E40004FF41151FFF7FEF9C54673E722F4FF7214
:101E500022F00102BBE700BF00ED00E0909500001A
:101E6000B08A0000BB950000D2950000F3950000F9
:101E700001960000209600003C9600007795000037
:101E8000629500006096000004000001044B5A694E
:101E900042F010025A615A6922F008025A617047F2
:101EA00000ED00E0EFF30880EFF3098101B5724621
:101EB000FFF702FF01BD00BF002080F31488BFF3CD
:101EC0006F8F114880F3088800201049087001F0D6
:101ED00097FB00200E490860BFF34F8F00F02EF8EB
:101EE000202080F311880B484FF40461401880F3E0
:101EF0000988EFF314800221084380F31488BFF3AC
:101F00006F8F00F0DDF80000802000206C0F0020B3
:101F100094ED00E0C01200200749D1F89020002382
:101F2000C2F307221846934200DB7047C1F898308D
:101F3000C1F8A0000133F6E700ED00E008B572B685
:101F4000002383F31388FFF7E7FF144B4FF0FF32B2
:101F5000C3F88020C3F88420C3F88820C3F88C20FD
:101F6000C3F89020C3F89420C3F89820C3F89C20AD
:101F7000C3F88021C3F88421C3F88821C3F88C21D9
:101F8000C3F89021C3F89421C3F89821C3F89C2189
:101F900062B6BFF34F8FBFF36F8F08BD00E100E063
:101FA000084B9B6883420BD1EFF3058343B1064B8B
:101FB0005A6842F080525A605A6A22F400425A62C9
:101FC00003F050BE200F002000ED00E016498A68A3
:101FD0004FF030001044EFF3098C80E8F01F202010
:101FE00080F31288BFF36F8F104F4FF000664A697D
:101FF0008A603E604FF0A404141920680C4C2060E5
:10200000D2F8A8000023C2F8A83080F3118804B5E4
:10201000104600F0F5F8BDE8044002F1300090E809
:10202000F01F8CF309887047200F002004ED00E0BA
:10203000800D00201EF0040F0CBFEFF30880EFF3BB
:102040000980816911F8021C0229FFD001B572468E
:1020500005F08AF901BD00BF40B2002807DB044A41
:102060004109012300F01F00834042F821307047EE
:1020700000E100E0054B420900F01F0053F8222068
:10208000012303FA00F01040704700BF00E100E0B8
:1020900040B20028A8BF00F1604001F10101B8BFC3
:1020A000064B4FEA4111ACBF00F5614000F00F0054
:1020B000C9B2B4BF195480F80013704714ED00E0A2
:1020C0000B4A08B50B4B22F07F029A60BFF34F8F8B
:1020D000BFF36F8FD3F8882022F47002C3F88820F2
:1020E00003F0C0F803F0EEFE00F060F803F002F930
:1020F0000000000000ED00E042F8203C009B42F8A8
:102100001C3C0A49019B42F8183C029B42F8143CD3
:1021100021F001014FF0807342F8043C42F8081CA2
:102120000023203A0265C0F8A8307047AD0A0000CD
:102130000A4A0346906878B113F1160FD0F894005C
:1021400005D0A0F140029A4205D8834203D28142D1
:1021500028BF002070470020704700BF200F0020DC
:1021600008B515460A4A0B4B9060D0F8A4201A60B7
:102170000E4600F045F82C4686F309880020064BF1
:1021800098472046002100220023044C204700BF2E
:10219000200F0020800D00208F730000AD0A00008A
:1021A000014B10221A61704700ED00E00448002343
:1021B0002021C2180133302B82F80013F9D1704767
:1021C00000E100E008B5EFF30583064A103B02EB9F
:1021D000C30152F8330049688847BDE80840FFF75B
:1021E00019BC00BF7C880000024B034A0348012150
:1021F00000F08CB80000022000000020048C0000D9
:10220000D0F89420054B403A1A60054A4021C3E9B2
:1022100001121846012100F083B800BF840D002090
:1022200000000B1508B503461048D0F89020C2F303
:102230000722013A934207D90D480E4A012104F0C2
:10224000CBFF6FF0150008BDC0F898300A6822F087
:102250001F021A4342F01002C0F89C208A6842F024
:102260000102C0F8A0201846EDE700BF00ED00E035
:10227000A08A000077960000F0B50E4685B01F4694
:1022800004460025B5420DDA606810B397B1431ECD
:1022900018420AD0104A11482B46012104F09CFF35
:1022A0006FF01502104605B0F0BD1F28F2D9216865
:1022B0000B42EFD12368019305F08CF8A36801A9C4
:1022C0000343D0B20393FFF7ADFF10F1160FE7D031
:1022D000421C01350C34D5E79D960000A08A000011
:1022E000044B0522C3F89420BFF34F8FBFF36F8FC9
:1022F000704700BF00ED00E0BFF35F8F024B00228C
:10230000C3F89420704700BF00ED00E010B5034C07
:1023100001232278FFF7B0FF207010BD690F002065
:1023200008B50B4A00231278FFF7A6FF10F1160F2D
:1023300007D0084A0021D2F89030C3F3072398420F
:1023400000DB08BDC2F89800C2F8A0100130F2E727
:10235000690F002000ED00E02DE9F043574858498F
:10236000D0F890300D68C3F307239D4285B000F28A
:10237000A180FFF7C1FF49680022954201F10C01DD
:102380001AD1504C504F25706846FFF7AFFADFF86E
:102390003C81DFF83C9106460025AE421FD12378F0
:1023A00046490020D1F89020C2F3072293427BDBFC
:1023B000FFF796FF00204CE0C0F8982051F80C3C45
:1023C00023F01F03134343F01003C0F89C3051F86F
:1023D000043C43F00103C0F8A0300132CDE700987F
:1023E00000EB05114FEA051CCB683B40B3F5000F2D
:1023F00044D00AD8B3F5001F2ED0B3F5800F34D0E7
:10240000B3F5801F10D00135C7E7B3F1807F3ED010
:10241000B3F1007FF7D150F80C3088684A6804F0B7
:10242000D9FF40F4802009E050F80C3088684A68F1
:1024300004F0D0FF40F0885040F43020039001A910
:102440002078CDE90123FFF7EDFE002828DA6FF0B0
:10245000150005B0BDE8F08350F80C3088684A6874
:1024600004F0B8FF40EA0800E8E750F80C3088684C
:102470004A6804F0AFFF40EA0900DFE750F80C308B
:1024800088684A6804F0A6FF40F08270D6E750F8EA
:102490000C3088684A6804F09DFF40F08870CDE7F2
:1024A000237801332370AEE7C1F89830C1F8A0005B
:1024B000013377E74FF0FF30CBE700BF00ED00E0DE
:1024C000108C0000690F00200000F0FF00000811D0
:1024D00000000207F0B587B007460E4614460021FB
:1024E000102268461D4606F0CFF802238DF8023010
:1024F0002A46054B019321466846CDE9047603F050
:10250000EDFE07B0F0BD00BFF573000008B5024B4B
:102510001B689847002008BD900D0020034B044A1B
:102520001860937843F0020393707047900D002079
:10253000D004002008B50649064821F00701C1F182
:10254000005202F5003204F0AEF9002008BD00BFD1
:10255000C7200020940D0020044A0123C2F8403512
:102560004FF080420020C2F87835704700E001400B
:1025700020B1034B800143F001031847704700BFAF
:10258000508B0000084B70B5C31A0D4607499B10CD
:10259000044659430648402204F040FF2B460146BA
:1025A0002046BDE870401847B40D0020B76DDBB67B
:1025B0000488000073B50C4C0C4A4023041B0093A4
:1025C0000D460B460A49A41061430646094804F02B
:1025D00050FF011E05DA30462B4602B0BDE87040C0
:1025E000184702B070BD00BFB40D0020DB740000BE
:1025F000B76DDBB60488000010B5EFF3118420231B
:1026000083F31288BFF36F8F074A136823F0020128
:10261000DB07116002D4012005F0BBF884F31188B8
:10262000BFF36F8F10BD00BF040E0020002270B5F5
:10263000012104461046FFF72BFD0F4801F0D0F8AA
:102640000E4B984215D101F0DBF826690C49304653
:1026500004F096FC00280BDB012535642469084949
:1026600004F11C0004F08CFC002801DBE564002070
:1026700070BD6FF00400FBE77D2700000000AD0B8C
:10268000308C00001FB500220123CDE90223094A46
:10269000CDF800D06B46CDF804D004F017FF002829
:1026A00005DB4FF480420023684602F08FFF05B03F
:1026B0005DF804FBF974000030B4104B0C2202FBEF
:1026C000003301460020D3E90E529863EFF31180E6
:1026D000202484F31288BFF36F8F1C6C04F0C004B5
:1026E00044F002041C6480F31188BFF36F8F1DB1A6
:1026F0002B46034830BC184730BC7047B40D00204F
:102700000488000010B4EFF31182202383F31288B1
:10271000BFF36F8F1748016841F002040460C807D7
:1027200007D482F31188BFF36F8F012010BC01F032
:1027300079B84FF08041D1F80C04D1F80C14C907D6
:10274000EFD5EFF3118083F31288BFF36F8F0A493F
:102750000B6C03F0C00343F002030B6480F3118899
:10276000BFF36F8F82F31188BFF36F8F002010BC0F
:10277000FFF7A2BF040E0020B40D002010B1012805
:1027800004D07047034B1B6C5B0701D1FFF794BF6C
:10279000704700BFB40D00202DE9F0413849BFF368
:1027A0005B8F0746012251E8003F41E800200028E6
:1027B000F9D1BFF35B8F33B9324933484B60CB60FB
:1027C0008A6004F0F0FB7B1E012B2BD8012F07D170
:1027D0004FF08043D3F81C3403F00303012B21D0C6
:1027E00005F02AFE0546F8B9284B1B78E3B14FF0F7
:1027F00080430222C3F808230646DFF894804FF096
:102800008044D4F81824D4F81834D20315D503F032
:102810000303012B01D0012F0FD155B386F311888B
:10282000BFF36F8FBDE8F081EFF31186202383F3B0
:102830001288BFF36F8F0125DFE7ADB1304604F09A
:10284000BAFDD4F81835002BDBD1D4F80421002AC6
:10285000D7D0C4F80431D4F804310123C4F81835B2
:10286000C8F88031A360CCE70021212005F07DFE6F
:10287000E7E74FF080430222C3F80423D2E700BF0A
:10288000B00D0020A00D0020D00D00206C0F002006
:1028900000E100E008B5074805F078FD38B10648CA
:1028A000FFF73CFE0448FEF7FBF8002008BD6FF080
:1028B0001200FBE740880000BD2800000A2838B558
:1028C000074D044604D1AB680D215B682846984744
:1028D000AB6803485B68E1B29847204638BD00BF4B
:1028E00040880000F0B54068057B01F01F0444EA11
:1028F0004514056987B0002D64D0B2F5001F00F1C2
:10290000100506D12146284604F0C3FF002007B079
:10291000F0BD01AE0027B2F5800F0197776039D185
:10292000B3F1007F14BF052304238DF80430002386
:10293000CDE904630393836823FA01F111F00101E7
:102940001AD1B2F1A07F17D104F01F03620903F579
:10295000E0732AD0012A3BD11F4A52F82330DB070B
:102960000AD40DF1030632462146284601F03AFA10
:102970001A4B98421CD0029603AA2146284601F021
:10298000F3F8174B984220D101222146284601F046
:102990008DFABBE7B3F1C06F05D0B3F1007F14BF70
:1029A00001230223C1E70323BFE74FF0A042D4E78E
:1029B0003146284601F074FA094B9842DBD06FF09B
:1029C0000B00A4E76FF08500A1E76FF015009EE70C
:1029D00051F82330FFDE00BF000300500400AD0BB0
:1029E0000000AD0B38B545682B69B3B110352846EA
:1029F00001F046FA044680B90146284601F00CFA77
:102A0000084B98420BD108492246284601F0E4F9C8
:102A1000224605210620FFF73BFB002038BD6FF062
:102A20000400FBE70000AD0B2D2A0000420970B541
:102A3000034602D0012A17D070BD0D4E326951688D
:102A40000029F9D003F01F0301250C689D400029DF
:102A5000F2D08A682A4002D04B68304698472CB1A1
:102A6000236821461C46F2E7024EE7E72346F8E7D3
:102A70002C880000188800002DE9F043466840F2D9
:102A80000635D006337B87B002EA050554BFC2F392
:102A90004010032001F01F07B5F5837F144647EA75
:102AA00043178DF8030045D00FD8062D18D007D84E
:102AB000B5B1022D40D06FF0150007B0BDE8F0832E
:102AC000B5F5807FF7D101250AE040F20222954258
:102AD00034D0B5F5407F33D0B5F5007FEBD102257A
:102AE0000123220303FA01F12CD57368C3F80815FA
:102AF000326982BB07F01F037F0929D0012F77D1EC
:102B00003E4A02EB830284F48033D2F80017C3F309
:102B10000043C4F3404444EA430421F4E16144EA3D
:102B2000800421F0070144EA05230B43C2F8003773
:102B30000020C2E70725D3E70425D1E70525CFE725
:102B40000325CDE7630344BF7368C3F80C15CFE7D3
:102B50004FF0A042D5E710360DF10202394630465B
:102B600001F040F914F4403F80460CD1394630461C
:102B700004F08DFE224B9845DAD19DF802103046C4
:102B800001F088F9D4E701AB4FF0000903AA3946F8
:102B90003046CDE90439CDE90199CDF80C9000F02B
:102BA000E3FF174B984286D114F4003315D09DF8FB
:102BB00003308DF80E3084F48034C4F300444B4667
:102BC00003AA394630468DF80C508DF80D4001F0BF
:102BD00085F80B4B9842CDD06DE7CDE9043303AABD
:102BE0000DF1030339463046039300F0BDFFF0E7D3
:102BF00003F5E07352F82330FFDE00BF00030050FE
:102C00000000AD0B02780B69012A08D0022A08D017
:102C10004AB9064A5A6203F1140002F0A3BC044AFE
:102C2000F8E7044AF6E7044AF4E700BF0000AD0BFA
:102C30000100AE0B0200AE0B0100AD0B2DE9F04F11
:102C4000D0F81090D0F8048085B005460C461746A1
:102C5000029309F1040A4FF0FF324FF0FF33504660
:102C600002F0B4FC09F1140B00230022584602F0D4
:102C7000ADFC404601F0D0FB7B1E00260393B7421B
:102C800001D8002322E0039B217AB34283BF237D36
:102C900083F00403C3F3800300230193029B00939A
:102CA000D4E90023284600F08FF8034670B94FF4AA
:102CB00080420023584602F089FC98B1404601F05A
:102CC000BBFB284600F06EF86FF004034046029309
:102CD00001F0B2FB504602F045FC029B184605B0DD
:102CE000BDE8F08FD9F82430034A934204F10C0474
:102CF000EAD10136C3E700BF0000AD0B98B504462A
:102D000040682346826900AF00F1080101F040FBF2
:102D10000E4B984217D023686C4688B06A460C491F
:102D2000C2E905134FF4007393830A4B42F8103F36
:102D3000094800234FF4E251FEF784FA6FF00F00C8
:102D4000A546BD4698BD0020FBE700BF0000AD0BC7
:102D50003697000003000001808A000008B5CA070A
:102D6000436800690AD4C1F34202012A09D0022A49
:102D70000FD00A4A0A48012104F025FA6FF0150025
:102D800006E01B684FF0CC72C3F8242501600020D8
:102D900008BD1B684FF0CD62F6E700BF56970000F4
:102DA000808A000008B543681B68D3F80805D3F88B
:102DB0000C1501F047FC034B984214BF6FF00F0055
:102DC000002008BD0000AD0B2DE9F04186B00C4697
:102DD00047689DF834801546002112220DF1060047
:102DE0001E4605F051FCBDF830208DF8052004F09A
:102DF000010314F008028DF804300296049509D0FE
:102E0000124A1348012104F0DEF96FF0850006B084
:102E1000BDE8F081A10705D4B8F1000F11D1002B56
:102E2000F3D1202201A9384601F022FB094B984238
:102E300009D00B3398420CBF6FF00F006FF0040005
:102E4000E5E74022EEE70020E1E700BF68970000D9
:102E5000808A00000000AD0B036803F01F025B09CD
:102E6000026004D0012B034818BF002070474FF0C8
:102E7000A0407047000300502DE9F04FDFF860914B
:102E8000DFF860A185B01546834600EB810140F272
:102E9000FF18594503D1002005B0BDE8F08FDBF8DD
:102EA00000305804C3F3C322C3F3080400F1918037
:102EB0001B0E19F80270444508BF4FF0FF34192B60
:102EC00000F28A80DFE803F00D141A1D20261D8809
:102ED0008888883663888888888888888888667C17
:102EE0007F82C5F80C45621C5ED10BF1040BD0E764
:102EF000C5F81445631CF8D000265FE0C5F8084506
:102F0000F1E7C5F81045F5E7661CC5F80845ECD0B3
:102F1000002604E0601CC5F80C45E6D0012603A895
:102F20000394FFF799FF039B012202FA03F3C0F811
:102F30000C3508E0C5F80845002FDBD1631CD4D060
:102F4000002632460627DBF80030019303F40040E8
:102F5000002818BF002203A8009218BF012603947E
:102F6000FFF77AFF039C019B009A00EB8400C3F3F8
:102F7000412CD0F800473B0243EA8C03134304EA98
:102F80000A04234343EA4603C0F80037ADE7C5F817
:102F90000C45D1E7C5F86045621CDBF80030A4D0D1
:102FA000C3F30043002BB9D003A80394FFF754FFE9
:102FB000039B012606FA03F3C0F808353246C2E740
:102FC000C5F86445E8E7C5F86845E5E7C5F86C4528
:102FD000E2E76FF015005FE76FF085005CE700BF88
:102FE0008E970000F0F8FCFF2DE9F0410446476899
:102FF0000D4605F021FA4FF0200888B9264B1B78C2
:1030000073B16426606804F01CFBF0B9012004F081
:103010005AFB013EF6D10021212005F0A6FAF0E787
:10302000EFF31186314688F31288BFF36F8F606823
:1030300004F007FBA8B986F31188BFF36F8FEFE7A1
:1030400086F31188BFF36F8FE5E7EFF31186314602
:1030500088F31288BFF36F8F606804F0F2FA0028DB
:10306000EED0FB691D706368FA691B680020C3F825
:1030700044250122C3F84825C3F82001D3F8204194
:10308000C3F85801D3F858019A6081F31188BFF34F
:103090006F8FBDE8F08100BF6C0F0020F7B50546CB
:1030A000002201210220FEF7F3FF0220FEF7D4FFE9
:1030B0006B6818681A69C0F82425997D5A7D0A43FF
:1030C000198B1B7D0B431343C0F86C356E68D6E932
:1030D000004313F0010350D02F6907F1080004F0FA
:1030E000FEFA334B984208D03248334A012104F0AB
:1030F0006AF86FF0040003B0F0BD387A04F10C02F6
:1031000004F5907104F0E1FA387A012707FA00F02B
:1031100000F060FB0823C4F80035F369C4F84435B7
:103120000023C4F84835A760D4F85831002BFBD0F1
:103130000021C4F800156B68DC6801AA204604F081
:1031400053FA002805DB019B226819791868FFF7FC
:1031500093FE6A6813680821C3F80015117A51B903
:10316000126AC3F834250122C3F83825C3F81011B8
:10317000D3F810111A600020BDE70822C4F800251A
:10318000F269C4F84425C4F848350123A360D4F893
:103190002031002BFBD00023C4F82031D4F820319B
:1031A0000123E3604FF48073C4F80433BCE700BF2D
:1031B0000000AD0BC08A00009697000070B5012397
:1031C00083400E4ABFF35B8FDC4352E8001F01EAE5
:1031D000040542E80056002EF7D1BFF35B8F4FF491
:1031E000803282400648C0F80823BFF35F8FBFF3E8
:1031F0006F8F0B4214BF0120002070BD300E0020E5
:103200000010014070B40E49D1E90034D01AC3183F
:1032100044F1000422F07F46C1E90034A6F5001312
:10322000B3F5400F09D2074B1B681A0A1B069C19FD
:10323000054B42F10005C3E9004570BC02F002BF36
:10324000E80A0020340E0020F00A002011B3BFF37A
:103250005B8F0123104A834052E800CF4CEA030CF5
:1032600042E800C10029F7D1BFF35B8F0B4A4FF44E
:1032700080338340C2F80433094BBFF35B8F1B6874
:10328000BFF35B8FC340DB0742BF064B4FF40032F6
:10329000C3F80021704700BF300E0020001001402D
:1032A0002C0E002000E100E00D4B1868010A00061A
:1032B000BFF35F8F0B4BD3F80435181841F10001B1
:1032C000B3F5801F0AD2084BD3E90023904271EB7B
:1032D000030303D210F1807041F10001704700BF79
:1032E000340E002000100140F00A00202DE9F04FBC
:1032F00085B016461F469DF840A00446FFF75EFFC6
:103300000190FFF7D1FFB04271EB070354D23E4B5F
:10331000301A67EB0101984271F100014FD23B4B2B
:1033200003EB0413D3E902239F4208BF96425ED009
:1033300037494FF4803804F1500508FA04F8AD001D
:10334000C1F848832046ADB204F0ACF926F07F4BBB
:1033500005F1804504F5A87305F58835DC464FF086
:1033600003090293029A2CF07F4341F82230C1F8FE
:103370004483D1F80435274A6FF00200C01A604434
:1033800020F07F40904232D9286868B1D1F80435E6
:103390000393A3EB0B0020F07F40B0F5000F26D97C
:1033A000204604F07FF9039BBAF1000F07D109EB27
:1033B000030C09F10109D5E7BAF1000F09D06FF04C
:1033C000150520460199FFF741FF284605B0BDE8E5
:1033D000F08F0123104ABFF35B8FA34052E8000F28
:1033E000184342E800010029F8D1BFF35B8F074979
:1033F0000E98230101EB0412C8500F9B5360C2E9E1
:1034000002670025DDE700BF01008000D80A002028
:1034100000100140FDFF7F002C0E00207FB51C4CEA
:103420001C4BC4F80833C4F848331B4B00254FF03D
:10343000FF304FF0FF31C4F80855C3E902014FF4E3
:103440008033C4F80433154B02264FF400320121B7
:10345000C4F804631120C3F880212A46FEF718FE41
:103460001120FEF7F9FD0E4A0123A36023601360CB
:103470000C4B0D4A0093CDE9015500232846FFF778
:1034800035FF3046FFF788F9284604B070BD00BF0D
:103490000010014003000F00D80A002000E100E006
:1034A000300E002005320000FFFF7F002DE9F743BA
:1034B0002F4CD4F8043399070BD5D4F8043143B119
:1034C0002C4A0023C4F80431D4F8043113680133C2
:1034D0001360D4F80433DA0329D5BFF35B8F264B8E
:1034E00053E8002F22F0010143E800100028F7D133
:1034F000BFF35B8FD30702D4D4F84031BBB10025B2
:10350000C4F84051D4F84031FFF7CEFEEFF31182FA
:10351000202383F31288BFF36F8F184BD3E9026720
:10352000B042B94106D282F31188BFF36F8F03B066
:10353000BDE8F0834FF0FF384FF0FF39C3E902894F
:10354000D3E900101D604FF48033C4F84833C4F849
:103550004051D4F8403182F31188BFF36F8F0029B6
:10356000E5D0009032463B4628468847DFE700BF5B
:1035700000100140340E00202C0E0020D80A00203C
:1035800030B5431C124C85B005D08442A8BF044618
:10359000012CB8BF0124FFF787FE0E4B0C4DD3E979
:1035A0000013401AB0F5000F10D22218AA4228BF0B
:1035B0002A4652184FF0000007490091CDE901005A
:1035C00043F10003FFF792FE05B030BD2A46F0E755
:1035D000FFFF7F00E80A00200532000008B5FFF772
:1035E00063FE024B1B68C01A08BD00BFE80A00203A
:1035F000024AD2F80034002BFBD0704700E00140B3
:1036000010B54FF08053D3F830210D2A55D14FF02B
:1036100080410022C1F80C21C1F81021C1F83825E1
:10362000464AD3F80404C2F82005D3F80804C2F8C7
:103630002405D3F80C04C2F82805D3F81004C2F806
:103640002C05D3F81404C2F83005D3F81804C2F8D6
:103650003405D3F81C04C2F84005D3F82004C2F89E
:103660004405D3F82404C2F84805D3F82804C2F866
:103670004C05D3F82C04C2F85005D3F83004C2F836
:103680005405D3F83404C2F86005D3F83804C2F8FE
:103690006405D3F83C04C2F86805D3F84004C2F8C6
:1036A0006C05D3F84434C2F87035D1F80034DB0728
:1036B00009D56FF00103C1F800344FF08053D3F8FF
:1036C00030310D2B0CD14FF08053D3F834313BB156
:1036D0004FF01023D3F808224FF08043C3F8582549
:1036E0004FF01023D3F80022002A03DBD3F8043272
:1036F000002B22DA124901234FF01020C1F80435C3
:103700001224FFF775FFC0F80042FFF771FFC0F801
:103710000442FFF76DFF0023C1F80435FFF768FF8F
:10372000BFF34F8F0749084BCA6802F4E0621343A6
:10373000CB60BFF34F8F00BFFDE710BD00C000405E
:1037400000E0014000ED00E00400FA0530B5046837
:10375000CCB1BFF35B8FB4FA84F3C3F11F03DBB2C8
:1037600001229A4024EA020250E8005FA54204D1F7
:1037700040E8002CBCF1000FF6D1BFF35B8FE6D11F
:1037800002480B7030BD0248FCE700BF0000AD0BE3
:103790000200AD0B10B50368CB40DB0714D4012346
:1037A0008B400268BFF35B8F43EA020150E8004F91
:1037B000944204D140E8001CBCF1000FF6D1BFF3E5
:1037C0005B8FEED1014810BD0148FCE70000AD0B56
:1037D0000400AD0B014BC3F80405704700F0014035
:1037E000044B1A7922B9012218601A7102487047F5
:1037F00002487047380E00200000AD0B0C00AD0BE6
:1038000008B5074B1B682BB10020FEF733FC08B945
:10381000FEF722FC4FF080430022C3F8182508BDB4
:10382000380E002010B510B1012843D010BD4FF064
:103830008043D3F81814D3F81824C80321D502F014
:103840000303012B04D013B1002003F04AFF00232F
:103850004FF080420220C2F8183508224FF48273DC
:1038600003F180430021196002F180421C680124A9
:103870001460154A12680AB34FF08043C3F804037A
:10388000D4E7D3F81424D107E1D5D3F81C24920748
:10389000DAD40D4A12681AB10222C3F80423C5E72C
:1038A000D3F80421002AFBD00022C3F80421D3F866
:1038B0000431BBE700224FF48073D1E71A68002A75
:1038C000FCD019601B68B1E7380E0020F8B54FF046
:1038D0008043184FD3F804430125002604B9F8BDEE
:1038E000B4FA84F0C0F11F00830003F580739BB22B
:1038F00003F1804305FA00F2196892B224EA020447
:103900000029EBD01E601B684FF08043022AC3F8E9
:1039100008230BD1D3F81814D3F81814890705D14C
:10392000C3F81855C3F804239D60D7E73B68C0B2BD
:103930009847D3E7380E0020036803F01F025B09A5
:10394000026004D0012B034818BF002070474FF0DD
:10395000A040704700030050034A430900F01F00D5
:10396000D35C1844C0B27047D397000070B50546C9
:10397000FFF7F2FF0C4C08300E4634F81030DA0531
:1039800008D5C3F3432304EBC302284654F833306D
:1039900052689847A3682BB1E26831462846BDE8D3
:1039A0007040184770BD00BF0805002008B5FFF73C
:1039B000D3FF034B083033F81000400B08BD00BFA5
:1039C0000805002008B5FFF7C7FF034B083033F8A0
:1039D0001000C0F3400008BD0805002008B5FFF73F
:1039E000BBFF034B083033F81000C0F3401008BD94
:1039F00008050020034611F0010010B5CCB20DD12E
:103A0000A207C4F3400012D5094AD2F82005586035
:103A1000C2F82005003818BF012008E04FF0A0418F
:103A2000D1F820251A60C1F82025002AE8D010BD61
:103A30000003005010B5FFF78FFF124A083032F82C
:103A40001030D9051CD5C3F3432123F4F85322F8D1
:103A5000103002F10E04002034F8023F13F4807F8E
:103A600003D0C3F3432399420AD001302A28F3D16B
:103A7000002342F831300448BDE81040FFF78ABE09
:103A800010BD00BF0805002074050020F0B50546F4
:103A900000200446012607468C420BD1114BD3F877
:103AA0007C2132B10022C3F87C21D3F87C3140F074
:103AB0000040F0BDE3B29B0003F580729B0806FA5C
:103AC00003F31D420BD002F1804202F5C042D2F84E
:103AD00000C0BCF1000F02D0176012681843013417
:103AE000DAE700BF00600040F7B506460846FFF77A
:103AF00033FF194F00F108050C4637F81530DB0786
:103B000027D5304603F09FFE2046FFF767FF40B100
:103B10002046FFF74BFF316800F5A270002341F803
:103B200020302046FFF786FF002301A827F8153034
:103B30000194FFF701FF019B00EB8300074BD0F8D6
:103B40000027134043F00203C0F80037044803B0D5
:103B5000F0BD0448FBE700BF08050020F0F8FCFFBB
:103B60000000AD0B0400AD0B2DE9FF411646804669
:103B70000846FFF7F1FE0D463168044609B32846B2
:103B8000FFF720FF18B12846FFF728FF10BB0023DE
:103B9000CDE900338DF80E308DF80F300DF10F02A6
:103BA0000B4628460DF10E0103F0F5FD474A04F1DE
:103BB000080132F8113023F0020343F0010322F828
:103BC0001130736863B328461F785968FFF7FAFE0F
:103BD00010B1D1B13E4826E03C4A04F1080032F869
:103BE000103023F02003DB04DB0C22F8103061B12D
:103BF000032FEFD87168496891F800C0D8F8001019
:103C0000A7B90CF5A27C41F82C70304A04F10801E8
:103C100032F8113023F01C0343EA870322F81130F5
:103C2000B3684BBB2B4804B0BDE8F08101EB8C01BD
:103C300043EA4C33D1F810E52EF0030EC1F810E53D
:103C4000D8F8001001EB8C0E43F02003DEF81015BD
:103C500022F8103021F44F3121F44071CEF81015C4
:103C60002902DEF8108501F47C5141EA074141EA5E
:103C70000801CEF81015C8E7D3E900672846FFF71A
:103C8000D9FE002ECED0114DD5E90023964203D1A6
:103C90009F4201D1002209E00F480DF10F01FFF70B
:103CA00055FD0C4B9842BED19DF80F2045F832606F
:103CB00005EBC20308345F6035F8143043EA422351
:103CC00043F4807325F81430ACE700BF08050020EA
:103CD0000400AD0B0000AD0B740500202DE9F0438E
:103CE0000C4685B08046204611461E46FFF734FE3E
:103CF000054629B32046FFF765FE18B92046FFF7B1
:103D00006DFE18BB314F05F1080937F8193013F073
:103D10001C0F02D04B78012B18D001238DF80F30E7
:103D20000023CDE900134A1C8B1C20460DF10F0126
:103D300003F031FD37F8193043F0030327F8193049
:103D4000002E41D02046FFF73DFE18B9204805B0AF
:103D5000BDE8F08396F800C0D8F800301B4F0CF592
:103D6000A272002143F8221005F1080237F8121060
:103D700021F02001C904C90C27F8121075781DB371
:103D8000D8F80000B67800EB8C002D04D0F8103580
:103D900023F4991323F4F853C0F81035230203F4E5
:103DA0007C5305F440353605D0F810E52B4306F476
:103DB000801641EA4C31334341F0200143EA0E03BF
:103DC00027F81210C0F810350248C0E70805002097
:103DD0000400AD0B0000AD0B014BC3E902127047AC
:103DE0000805002010B508461446FFF7F7FD50B14E
:103DF0000846FFF7B1FD054B083033F81030044892
:103E00005B0B237010BD0348FCE700BF08050020D2
:103E10000000AD0B0400AD0B70B5164D95F8744065
:103E200006462CBB2146542205F1100004F02CFC60
:103E300030686E6E21468E420ED10023C0F87C3170
:103E4000D0F87C3140F30730FEF706F901230A4829
:103E500085F87430EB6670BDCBB29B0003F58072C1
:103E60007C2B08BF845001F1010108BF8358E2E7B1
:103E70000248F0E7080500200000AD0B0C00AD0B78
:103E8000034B93F87400003818BF0120704700BF3F
:103E9000080500200148FFF77DBC00BF7005002029
:103EA0000148FFF753BC00BF7005002073B50368DD
:103EB0001646D3F80423002AA8BF4FF00042054657
:103EC000A8BFC3F8042308460C46FFF787FD00B3DC
:103ED0000846FFF777FD0146D8B92046FFF766FD93
:103EE00004B2A40004F58072034628688150296852
:103EF00082582144D1F8102542F00102C1F8102562
:103F00002EB12968012202FA03F3C1F8043302B08A
:103F100070BD2046FFF720FD0F4B083033F81030FE
:103F2000C3F38203042B12D0052B12D001A80194F5
:103F3000FFF702FD019AD0F81035D34003F00103DA
:103F4000991C204602B0BDE8704003F06DBC03210F
:103F5000F7E70221F5E700BF080500202DE9F04F43
:103F6000694BDFF8A881D3F80403D8F86410C0B215
:103F700089B040F00040FFF789FD051E2FDAC246E8
:103F800000235AF8701F06A8CDE90633FFF732FD6B
:103F90005F4B01930DF118094FF0000B019A12F8D5
:103FA000013B0192DA0803F007031AF8022022FA13
:103FB00003F3DA071CD409F10409BBF1000F14D094
:103FC000D8F864104FF00040FFF760FDD8F870108B
:103FD00006A8FFF70FFD0028DAD125F000450124DF
:103FE000002D79D109B0BDE8F08F4FF0010BD5E776
:103FF000484B5B440293D9F800100029DBD0029BA8
:1040000091FAA1F11C78B1FA81F141EA44142046F9
:10401000FFF7A2FC0830059438F81070C808BB08F8
:1040200019F80020039301F00701012303FA01F1BD
:1040300022EA010209F8002005A8FFF77DFC059A95
:10404000039B02F5E072C7F3820650F822205B075B
:104050003746C2F3014224D520463946D6B2FFF78F
:1040600085FC05A80594FFF767FC059B03F5E07345
:1040700050F82330C3F301439E4207D1002120466C
:1040800003F0D2FB3146204603F0CEFB05A8059491
:10409000FFF752FC059B012202FA03F3C0F820351A
:1040A000A9E7022A0CD10321204603F0BDFB06F04C
:1040B0000503012BEAD139462046FFF757FCE5E717
:1040C00002212046039203F0AFFB032EF3D0039AA4
:1040D000032ADBD1022EEDE795FAA5F3B3FA83F3B9
:1040E00004FA03F29B0003F1804303F5C04325EA81
:1040F0000205D3F81005D3F81015C0F30520C1F35D
:104100000141FFF733FC6BE7006000400805002029
:10411000E3970000E397000001460148FFF716BB54
:104120008005002030B500F01F04400911D001289F
:1041300012D10C4800EB84001B02D0F800570A4C47
:1041400043EA82022C4042EA41012143C0F80017B1
:1041500030BD4FF0A040EDE704F5E074002353F8C4
:104160002430FFDE00030050F0F8FCFFCB7B10B4DE
:1041700033B9D1E900420368C3F80845C3F80C25F8
:1041800003688A68C3F8242503793C225343054A0F
:10419000D3582BB1006810BC40F30730FDF75CBF6B
:1041A00010BC7047400E002013B53B4B0193002319
:1041B000C0F80431D0F80421C0F82431D0F824210B
:1041C000C0F81C31D0F81C21C0F80831D0F8082103
:1041D000C0F800324B6381F82F300123036291F85D
:1041E0002D209A4218BF83604B6B8A6A9342044623
:1041F0000ED24A6AD35CC0F81C350B6803B340F298
:1042000086238B608B682548C4F8043302B010BD48
:1042100091F82C3013B10123C361EEE70B6A13F060
:10422000400F4FF0010316BFC361436181F82D3089
:10423000E3E7204603F02FFB28B1019B013B0193EC
:10424000019B002BF5DC91F82F305BB91348019BE3
:10425000002BDBDC0023C4F8003505231048C4F82C
:104260000035D3E7D4F8C434C4F8C4348BB10D4A54
:104270000B4813F0010F18BF104613F0020F02F1A4
:10428000010218BF104613F0040F074B18BF184661
:10429000DDE70348DBE700BFA08601000000AD0BAF
:1042A0000100AD0B0000AE0B0200AE0B13B5334B9B
:1042B00001930023C0F80431D0F80421C0F8243160
:1042C000D0F82421C0F81C31D0F81C21C0F80831E6
:1042D000D0F808214B6381F82F308B6A012B0446FC
:1042E00017D10B6A5B0614D40223C4F800320123F1
:1042F000236291F82D20022A18BF23600B688BB12E
:1043000040F286238B608B681D48C4F8043302B0EA
:1043100010BD0123E9E7204603F0BDFA28B1019B57
:10432000013B0193019B002BF5DC91F82F305BB929
:104330001348019B002BEADC0023C4F80035052359
:104340001048C4F80035E2E7D4F8C434C4F8C434E3
:104350008BB10D4A0B4813F0010F18BF104613F034
:10436000020F02F1010218BF104613F0040F074BB1
:1043700018BF1846DDE70348DBE700BFA086010051
:104380000000AD0B0100AD0B0000AE0B0200AE0B48
:104390002DE9F84390F804901C4E07463C2000FBA2
:1043A00009F035180C4695F82E1061BBA960325003
:1043B0006B6085F82D1085F8311085F83010CCB180
:1043C000637B85F8383094F80E8085F83980B8F131
:1043D000000F0BD12068062303224146FFF7A2FEFF
:1043E0006068062303224146FFF79CFE21463846BB
:1043F000FFF7BCFE3C2303FB09660548012386F852
:104400002E30BDE8F8830348FBE700BF400E0020D4
:104410000000AD0B0C00AD0B036802790521C3F859
:104420000015044B3C2101FB0233022283F82E20AD
:10443000704700BF400E002003680B4A0179C3F8A3
:104440000823D3F8002222F00302C3F8002200223E
:10445000C3F80025054B3C2000FB0133012183F804
:104460002E1083F83020704786420400400E002052
:104470002DE9F047314F0479D0F800903C2303FB3D
:1044800004730D4693F82D30012B944604D10B781C
:10449000012B06D12A4811E0022B02D10B78012B07
:1044A000F8D13C26274BC9F8083306FB047696F86A
:1044B00030302BB1B3682448C9F80433BDE8F08725
:1044C0008CF00403C3F3800386F83030C6F820C0B4
:1044D000A846B8E80F0006F10C0EAEE80F00D8F8B9
:1044E0000030CEF800306B68B362EB6873626B78B3
:1044F000C9F888352B78C4EB041A012B07EB8A0A1C
:1045000017D09BB9CCF3401C3C2303FB04735146EA
:10451000484683F82CC0FFF747FE3C235C433A191A
:104520003B59002BCAD182F83030C7E74FF0010C5D
:10453000EAE751464846FFF7B9FEEEE7400E002095
:104540000500AD0B864204000B00AD0BF0B5324CFC
:10455000324887B0214603F09EF9002859D194F8DB
:104560002F70FFB9227B931E012B1BD8606AA369B1
:10457000984217D1E36963626369A362236A27489B
:1045800084F82D70C3F34013032A84F82C3004D12F
:1045900007B0BDE8F040FFF707BE07B0BDE8F04048
:1045A000FFF784BE1E4E0FCE01AD0FC533682B60E2
:1045B00047B31A4AD2F8C434C2F8C43413F0020123
:1045C00006D001238DF80030002384F8303007E056
:1045D00013F0040209D002238DF8003084F8301063
:1045E000D4E900316846984713E013F0010305D081
:1045F00003238DF8003084F83020F1E704228DF891
:104600000020E2E7236A8DF800705B0784F83070C1
:10461000E6D507B0F0BD00BF400E002000300040DE
:104620004C0E0020036803F01F025B09026004D0F7
:10463000012B034818BF002070474FF0A04070477F
:1046400000030050F7B5064603F0BDF9084603F035
:10465000BAF901A80196FFF7E5FF019B2E4D00EB8B
:1046600083000C46D0F80037019440F20D612B40D6
:104670000B43C0F8003701A8FFF7D4FF019B00EB04
:1046800083000127D0F800372B400B43C0F80037D8
:10469000042003F018F8092501A80194FFF7C2FFD0
:1046A000019AD0F81035D340DB0715D401A8019644
:1046B000FFF7B8FF019B07FA03F3C0F80C3504209D
:1046C00003F001F8304603F07EF9013D042002F0CA
:1046D000FAFF15F0FF05DFD101A80194FFF7A2FF53
:1046E000019A01239340C0F80C35042002F0EBFF3F
:1046F000204603F068F9042002F0E5FF01A80194C8
:10470000FFF790FF019AD0F810350448D34003F02A
:104710000103C01A03B0F0BDF0F8FCFF0100AD0BBF
:1047200008B5124BA8220021184603F0ADFF032262
:1047300002610F4942610F4A8161C2614FF4806298
:104740000262002282624262C26201660A494166D6
:1047500010218166094902670346C266426711F863
:10476000010D98540132102AF9D108BD100400201F
:10477000E59700001000002000000020FE970000D8
:104780002DE9F84FDFF87C80182606FB008E00FB31
:1047900006664644DEF82440DEF828C07368A44567
:1047A00007468946154603EB040022D8DEF820B000
:1047B000ABEB040A0AF1FF339A4203D803F056FF29
:1047C0002C440FE063449A4219D852462C4403F01B
:1047D0004DFFB4EB0B0405D07068224609EB0A01CB
:1047E00003F044FF182303FB078301205C62BDE84C
:1047F000F88F0CF1FF3CACEB040C9445DED20020AA
:10480000F5E700BF10040020034B182202FB003321
:104810009A6A586A801A70471004002010B4084A37
:1048200008490023C85C12F8014D844204D10133C9
:10483000102BF7D110BC704710BCFFF771BF00BF41
:10484000FE9700001004002037B50D4614461946A7
:1048500058B155B14AB143B1CDE90005044A6B46A0
:10486000204603F02CFA03B030BD6FF00100FAE7E8
:10487000637D0000034607B5084611468BB168B159
:104880008AB100935B788DF8043000238DF80530F1
:10489000064A6B4603F013FA9DF8050003B05DF875
:1048A00004FB1846FAE71046F8E700BF217D000038
:1048B00020B119B1034A002303F001BA6FF00100DF
:1048C000704700BF5F7D00002DE9F0410D4688B0C4
:1048D0001446064600283ED000293CD0052A3AD886
:1048E0001E4B01AA03F1180E174618685968944622
:1048F000ACE80300083373456246F6D11868CCF87B
:1049000000006B78A34206D022461F21304603F0F8
:1049100086F8E8B96C700E2303FB04544FF00008CE
:1049200018347B783978E25C304603F078F878B94F
:1049300008F10108B8F10E0F07F10207F1D16B7809
:1049400033B102461F21304603F069F800B96870A0
:1049500008B0BDE8F0816FF00100F9E7308B00008E
:104960000530C0B205289ABF024B18566FF00400FC
:10497000704700BF699A0000F0B589B000AF1C46CF
:10498000F971BB6BF91DC7E90524B9600025012148
:1049900007221868F9609B883D743A773A7F8168EE
:1049A00042F002023A778E68022207F10801B0470E
:1049B000A0B16E468AB0FB796A460A49C2E905137E
:1049C0000523C2E9074042F8103F07482B464FF441
:1049D0002151FCF737FC4FF0FF30B5462437BD4678
:1049E000F0BD00BFFF970000A88A0000F0B585B0B9
:1049F00000AFC7E901121446022218683A739B8877
:104A00000D463A7B816842F002023A738E680122B9
:104A1000391DB047A0B12B786D468AB06A460A4965
:104A2000C2E905130523C2E9074042F8103F0748D1
:104A300000234FF42151FCF705FC4FF0FF30AD4649
:104A40001437BD46F0BD00BF22980000A88A0000C0
:104A5000F8B546680569306800AF03F097FC034677
:104A6000C0B932686C4688B011686A462E48C2E9FF
:104A700005014FF4007191832C4942F8101F2C4816
:104A80004FF4E251FCF7DEFBA5466FF0120420461E
:104A9000BD46F8BD274B2B60274B6B60B3882B724C
:104AA000EE6005F1900003F0B4FC05F1100003F096
:104AB00077F9FFF755FF044630B1204A034601213C
:104AC0001B4802F089FBE2E7284603F065FBFFF78D
:104AD00047FF3268B388116804466D46A0B18AB0BA
:104AE0006A461748C2E907344FF400739384154BA4
:104AF000C2E9050142F8103F00234FF431510C4840
:104B0000FCF7A0FBAD46C2E78AB06A460E48D36107
:104B10004FF4007313840D4BC2E9050142F8103FB6
:104B20004FF413512346EAE74698000003000001C2
:104B3000A88A0000ED490000794900005B98000058
:104B400072980000050000019C980000040000011C
:104B50002DE9F04782B0056905F1900600AF4FF0EE
:104B6000FF324FF0FF3330460C4603F0BFFBFB1D16
:104B70002846BA1D791D03F023FBFFF7F1FE054619
:104B8000304603F0B5FB55B14B4A4C482B4601214A
:104B900002F022FB28460837BD46BDE8F0876E4686
:104BA0008AB07879B979FB796A46DFF814C1C2E92D
:104BB00007130523C2E905C042F8103F3F482B46C2
:104BC0004FF42351FCF73EFBB546002CE2D07A7936
:104BD00002F003032370C2F381036370C2F3001376
:104BE0002372C2F340136372C2F38013A372D2091B
:104BF00004F10108BB79E27240462A4623FA02F129
:104C0000013201F00101062A00F8011FF6D1F879FE
:104C1000C3F38012DB09227363732246C0F380134F
:104C2000A373C30902F80F3F002320FA03F10133F5
:104C300001F00101062B02F8011FF6D1DFF8849084
:104C4000DFF878A0002618F8013F01362BB10321C8
:104C500033464A46504602F0BFFA062EF3D1237A75
:104C600023B1194A1548032103F03EFB637A23B1AF
:104C7000164A1248032103F037FBA37A23B1144AE2
:104C80000E48032103F030FBE37A23B1114A0B48AD
:104C9000032103F029FB237B23B10F4A074803219B
:104CA00003F022FBA37B002B3FF474AF0B4A0348B5
:104CB000032103F019FB6DE7B9980000A88A0000F2
:104CC000DA9800000B9900002B990000429900002F
:104CD000599900007A99000094990000AF9900005A
:104CE00038B5046904F190054FF0FF334FF0FF32FF
:104CF000284603F0FBFA04F11001204603F06BF89C
:104D0000FFF72EFE0446284603F0F2FA2CB1044ABF
:104D100004482346012102F05FFA204638BD00BF57
:104D2000C28D0000A88A00002DE9F8431546D0F88E
:104D300010800C4651B14AB111462046FFF7B8FD2C
:104D400048B1204A2048012103F0CEFA6FF0150443
:104D50002046BDE8F88308F190074FF0FF324FF08E
:104D6000FF33384608F1100903F0C0FA2A462146FD
:104D70004846FFF77FFD064648B9384603F0B8FAC3
:104D8000124A1148032103F0AFFA0024E0E72B4652
:104D9000224649464046FFF757FDFFF7E1FD04462E
:104DA000384603F0A5FA34B9094A074833460321C7
:104DB00002F012FAE9E7074A03482346012102F00C
:104DC0000BFAC5E7C5990000A88A0000E999000020
:104DD000179A0000D68D00002DE9F043CBB005698D
:104DE00005238DF8003005F11203019306238DF899
:104DF000083005F11303039307238DF8103005F1F4
:104E00001403059308238DF8183005F11503079353
:104E100009238DF8203005F1160309930A238DF834
:104E2000283005F117030B930B238DF8303005F173
:104E300018030D930C238DF8383005F119030F93E7
:104E40000D238DF8403005F11A03119310238DF8CE
:104E5000483005F11B03139311238DF8503005F1F1
:104E60001C03159312238DF8583005F11D03179379
:104E700013238DF8603005F11E03199314238DF868
:104E8000683005F11F031B9315238DF8703005F171
:104E900020031D9316238DF8783005F121031F930D
:104EA00017238DF8803005F12203219318238DF804
:104EB000883005F12303239319238DF8903005F1F1
:104EC000240325931A238DF8983005F125032793A1
:104ED0001B238DF8A03005F1260329931C238DF8A0
:104EE000A83005F127032B9340238DF8B03005F14E
:104EF0007C032D9341238DF8B83005F17D032F936A
:104F000042238DF8C03005F17E03319343238DF8A1
:104F1000C83005F17F03339344238DF8D03005F179
:104F20008003359345238DF8D83005F181033793FD
:104F300046238DF8E03005F18203399350238DF834
:104F4000E83005F183033B9351238DF8F03005F1F0
:104F500084033D9357238DF8F83005F189033F937F
:104F600058238DF8003105F18A03419359238DF8B8
:104F7000083105F18B0343935A238DF8103105F165
:104F80008C0345935B238DF8183105F18D0347930E
:104F90007F238DF8203105F1900705F18E034993A9
:104FA0004FF0FF324FF0FF33384603F09FF96C4665
:104FB0004FF0000905F11008636822781B7841461C
:104FC000284603F0D2F8FFF7CBFC09F10109B9F14B
:104FD000250F06460CD008340028EDD0384603F0E3
:104FE00087F9104A10483346012102F0F5F815E020
:104FF0000028F3D10446E2B241462846FFF764FC9C
:10500000FFF7AEFC052C064603D001340028F2D091
:10501000E4E7384603F06CF9002EE2D130464BB09D
:10502000BDE8F0833A8F0000A88A000038B5046913
:1050300004F190054FF0FF3328464FF0FF3203F0A4
:1050400055F9084A0848032103F04EF9204603F0B9
:1050500043F9FFF785FC0446284603F049F920464A
:1050600038BD00BF3C9A0000A88A000010B5044675
:10507000FCF704F80348044A012102F0A4F8204692
:1050800003F08FF9B08A00007F9A00002DE9F84301
:10509000044600AF0D46EFF31188202383F31288F6
:1050A000BFF36F8F0428294A98BF294B9668117C5B
:1050B00094BF53F82030274BE9468AB06A46264809
:1050C000C2E9073140F201339384244BC2E905045D
:1050D00042F8103F224800234FF43151FCF7B2F858
:1050E000CD4645B1EB69C3F3080323B11D4A1C4803
:1050F000012102F068F82EB1304603F0A3F908B19F
:10510000037803B91848E9468AB06A46174BD0615C
:10511000C2E9053640F201331384154B42F8103FC3
:1051200000230F484FF41151FCF78CF82946CD4667
:105130002046FFF79BFF88F31188BFF36F8F30463F
:10514000FCF72EFFBD46BDE8F88300BF200F00200E
:10515000108D00008E9A0000A49A00000500000146
:10516000B08A0000CC9A00009C9A0000ED9A0000E2
:105170000400000138B5094B53F82040013053F8C2
:105180002050A54200D838BD636823B1204603F003
:1051900010F90834F5E723689847FAE7248D0000F2
:1051A00070B52B4B2B4C2C4D012286B003201A706E
:1051B000FFF7E0FFFCF7A0FB03F017F90420FFF76F
:1051C000D9FF2646AE4204F1300410D300F04AFC69
:1051D000204C224EAC4226D300F058FCFAF798FF40
:1051E0001F4A137B23F00103137306B070BD54F8FC
:1051F0000C3C059354F8103C049354F8143C03936E
:1052000054F8183C029354F81C3C019354F8203C89
:10521000009354E90A2354E90C0100F00DFA54F804
:10522000303C5E65CDE7D4E90A23B3F1FF3F08BF08
:10523000B2F1FF3F05D052EA0301206803D100F02C
:10524000E5FC3034C6E73146183000F085FEF8E75B
:105250006C0F0020FC890000FC89000037850000ED
:10526000A80B002008B50348034A0021121A03F0D6
:10527000B8F808BDE8050020700F002070B5174E83
:10528000174D184986B0B02303FB0066164B0593F3
:1052900001220F23CDE903320023CDE9013314238A
:1052A00003FB005504464FF4C07000FB04110F4B84
:1052B00000954FF4A072304600F0BEF9737B0C4AA3
:1052C000EE6023F0040373734FF4046304FB0333B1
:1052D00013442C746B6006B070BD00BFF80A002048
:1052E000200F0020001B00204F9B0000ED830000DA
:1052F000C0120020BFB50020FFF73CFF2D4B83F309
:1053000008882D4D2D4E6B692D4F43F400736B6152
:105310000024E02385F82230EC772C766C76AC768E
:1053200085F820406B6A43F4E0236B6285F82340E4
:10533000FCF7ACFDFCF734FF4FF0FF33AB62EB62E0
:10534000FDF70AF8FCF750FFFBF704FE1D4BB360B6
:1053500040F201129A81C3E92544C3F8A04003F04A
:1053600014F80120FFF706FF0220174DFFF702FF98
:1053700000F0C0FB154B756105930123144900949F
:10538000CDE903434FF480623B46CDE90144284612
:1053900000F052F96A7B064622F0040228466A733E
:1053A00003F08CF82046FFF769FF3A46314628465D
:1053B000FCF7D6FE001B002000ED00E0200F0020CF
:1053C000A1510000580C0020A80B0020549B0000A5
:1053D000801C00202DE9F341044617461E46EFF3DA
:1053E0001188202383F31288BFF36F8FC368334A79
:1053F0007BB180689168884219D057EA060318D1BA
:1054000088F31188BFF36F8F6FF00F0002B0BDE813
:10541000F081916891F90E1021610133E360936886
:10542000A36088F31188BFF36F8F0020EEE7216936
:10543000F2E791F90E1090F90E309942A8BF194683
:105440006FF07E029142B8BF11468B422DDD02F013
:10545000D8FF0546CDE9007619482246414600F0BE
:1054600061FA0028E1D0EFF31186202383F312883C
:10547000BFF36F8FA068D0B1236821699C420AD026
:105480004BB193F90E309942A8BF19466FF07E03D5
:105490009942B8BF194602F0B4FF40B108483146FE
:1054A00000F0BAFA6FF00A00B0E70025D2E7002D4D
:1054B000F4D186F31188BFF36F8FF3E7200F00203C
:1054C0006D0F0020F8B583680546002B40D0234AB5
:1054D000926893423FD1C368012B03D9013BC3605B
:1054E0000020F8BDEFF31187202383F31288BFF368
:1054F0006F8F0169806802F084FF2C68AC4207D18D
:105500000023C5E9023387F31188BFF36F8FE7E704
:10551000002CF5D0D4E9003213605A60637B00267A
:1055200023F002036373C4E90066A66004F1180067
:1055300003F04DF8AC6094F90E302B612046C4F8AE
:10554000AC6002F0BBFF0648394600F065FAC7E7D9
:105550006FF01500C5E74FF0FF30C2E7200F0020C5
:105560006D0F002070B5EFF31186202383F31288AE
:10557000BFF36F8F0468A0421BD0D4B1D4E90032CE
:1055800013605A60637B002523F002036373C4E950
:105590000055A56004F1180003F019F82046C4F87E
:1055A000AC5002F08BFF31460748BDE8704000F078
:1055B00033BAD0E902329A4218BF0133836086F3CE
:1055C0001188BFF36F8F70BD6D0F002013B5EFF31F
:1055D0001181202484F31288BFF36F8F846844B153
:1055E000013C846081F31188BFF36F8F002002B00B
:1055F00010BD52EA030406D181F31188BFF36F8F07
:105600006FF00F00F3E7CDE900230246014800F0F8
:1056100089F9ECE76D0F002010B5044608B9054B79
:105620009C681F2204F1740003F036F8002084F80F
:10563000930010BD200F00202DE9F04F073285B0F8
:1056400022F0070204461E467F3200F15803C0E9EB
:10565000163322F03F02129B237300200D46119B4C
:10566000DDF838A0139FA06004213F2AC4E906009A
:105670006173A373E07305F14009A2F1400B05D8F3
:1056800080F31188BFF36F8F084602DF05EB020835
:1056900041462046FCF79EF90730109B20F007009A
:1056A000C4E9259BC4F89C0002930F9BA8EB000B58
:1056B000CDE900A35A46334629462046FCF71CFD97
:1056C0000F9BA3664FF00008109BC4F85480C4E9F8
:1056D000186AE366EFF31182202181F31288BFF389
:1056E0006F8F0F4D296A21672C6282F31188BFF3F7
:1056F0006F8F8FB11F22394604F1740002F0CCFF86
:1057000084F89380AB680BB1D3F8A030C4F8A03014
:10571000584605B0BDE8F08F84F87470F2E700BF1A
:10572000200F0020F0B587B000250595109D049549
:105730000F9D03950E9D0295DDE912760D9D019555
:105740000C9D00950446FFF777FFB6F1FF3F08BFB9
:10575000B7F1FF3F05D056EA070305D1204600F018
:1057600055FA204607B0F0BD03493A46334604F1E6
:10577000180000F0F1FBF4E7378500000A4A93684F
:105780006FF00A01C3F8AC100849C3F8A8004B68D1
:1057900043F080534B60002383F31188BFF36F8F76
:1057A0009368D3F8AC007047200F002000ED00E0B4
:1057B00070B590F90D20437B002A39DBD90637D12B
:1057C0008269002A34D11D4C63F07F032246437363
:1057D00052F8183F93422CD1E169C0E900210860DA
:1057E000E06111E09942F8D01B68002BF5D090F9E8
:1057F0000E5093F90E60B542F4D0AE42F2DD596816
:10580000C0E9003108605860A569954200D005B92B
:10581000E568A3685A7BD20604D1DA897F2A01D9C8
:10582000AA6942B1AB4202D0284600F0D5FA6561C0
:1058300070BDE169D9E76361FAE700BF200F00207E
:1058400038B590F90D20437B002A014604DA03F0B5
:105850007F03437302F0F8FD0D4D2A46AB6852F802
:10586000184F944200D004B9EC688B4207D05A7BA1
:10587000D20604D1DA897F2A01D9A2692AB1A342CA
:1058800002D0204600F0A8FA23466B6138BD00BF65
:10589000200F002070B590F90D20437B002A0146AF
:1058A00004DA03F07F03437302F0CEFD4B7B1C4C04
:1058B00063F07F0322464B7352F8183FE06993422E
:1058C00007D1C1E900200160E16111E09842F8D000
:1058D0001B68002BF5D091F90E5093F90E60B5427C
:1058E000F4D0AE42F2DD5868C1E900300160596081
:1058F000A569A368954200D005B9E5688B4207D039
:105900005A7BD20604D1DA897F2A01D9AA692AB141
:10591000AB4202D0284600F05FFA2B46636170BDAF
:10592000200F0020F8B5124B0C461146114A98681A
:105930001060DDE90676EFF31182202282F31288EF
:10594000BFF36F8F9D68284602F090FDB6F1FF3FD0
:1059500008BFB7F1FF3F06D007493A46334605F185
:10596000180000F0F9FA2046BDE8F840FFF706BF3E
:10597000200F0020440F002037850000F8B50446B2
:10598000EFF31186202383F31288BFF36F8F437BDD
:10599000DA0649B217D18269AAB903F07F034373CB
:1059A00002F052FD1B4D437B817363F07F032A4657
:1059B000437352F8183F93422AD1E869C4E90020A2
:1059C0000460EC6116E0A173002086F31188BFF338
:1059D0006F8FF8BD8342F1D01B68002BEED093F996
:1059E0000E70B942F6D08F42F4DD5968C4E9003137
:1059F0000C605C60AC69944200D004B9EC68AB68A0
:105A00009C4202D0204600F0E7F96C610120DCE7FF
:105A1000E869E2E7200F002049B9EFF3058030B9CB
:105A2000054B5A699B689A4201D0FFF7A7BE81F3E4
:105A30001188BFF36F8F7047200F0020034648B9CD
:105A4000EFF3058232B9064A51699268914201D05A
:105A5000FFF794BE83F31188BFF36F8F704700BFC9
:105A6000200F0020EFF31181202383F31288BFF36E
:105A70006F8F054B9A68D37B013BD37381F31188F9
:105A8000BFF36F8F704700BF200F002070B5EFF39A
:105A90001186202383F31288BFF36F8F144DAB68F8
:105AA000DA7B0132DA732A4652F8184F944200D05A
:105AB00004B9EC685A7BD20604D1DA897F2A01D96D
:105AC000A2692AB1A34202D0204600F085F92346FC
:105AD0006B6186F31188BFF36F8FEFF31180202382
